S01B00002E2F44656275672F666C6970666C6F705F6972712E7331395F
S315200000000248854600F05AF8FEE7C04600C00120A7
S3152000001080B500AF094B1B685A1C084B1A60084B69
S315200000201B680822134005D0054B1A68044B08218B
S315200000300A431A60C046BD4680BDC046E400002083
S31520000040143C014080B500AF144B154A1A60154B7D
S315200000501A68144B1205120D1A60124B1A68114BAE
S315200000608021C9010A431A600F4B1A680E4B0821DA
S315200000700A431A600D4B1A680C4B08210A431A6072
S315200000800B4B0C4A1A600C4B1A680B4B80218900CB
S315200000900A431A60C046BD4680BDC046000C0240D9
S315200000A05555000008380140003C0140083C0140FD
S315200000B064C001201100002000E100E080B582B07C
S315200000C000AF064B1B687B60FFF7BCFF7B685A1CA2
S315200000D07A60034ADBB21370F8E7C046E4000020DA
S30D200000E0140C02400000000090
S70520000000DA
