S01D00002E2F44656275672F67726170686963646973706C61792E73313990
S315200000000248854600F01CFBFEE7C04600C00120E2
S3152000001080B500AFC046BD4680BD80B500AFFFF7B6
S31520000020F7FFFFF7F5FFC046BD4680BD80B582B01D
S3152000003000AF786007E0FFF7EBFFFFF7E9FFFFF778
S31520000040E7FFFFF7E5FF7B685A1E7A60002BF2D1A7
S31520000050C046C046BD4602B080BD80B582B000AF66
S3152000006078607B68FA229100180000F037FB0300C5
S315200000707B607B6801337B6004E0FA239B001800D9
S31520000080FFF7D4FF7B685A1E7A60002BF5D1C04655
S31520000090C046BD4602B080BD80B584B000AF020028
S315200000A0FB1D1A700F4A0F203B1812781A703B1846
S315200000B03A18127804218A431A70FB1D1B785BB20A
S315200000C0042293435AB23B181B785BB213435AB2AD
S315200000D03B181A70034A3B181B781370C046BD465E
S315200000E004B080BD1410024080B584B000AF020079
S315200000F0FB1D1A700F4A0F203B1812781A703B18F6
S315200001003A18127804218A431A70FB1D1B785BB2B9
S31520000110DB435BB23A18127852B213405AB23B18FC
S315200001201A70044A3B181B781370C046BD4604B0AB
S3152000013080BDC0461410024080B582B000AF0200D8
S31520000140FB1D1A70FB1D1B78182B1AD020DC102BD8
S3152000015010D01DDC002B02D0082B04D018E018206C
S31520000160FFF7C2FF14E00820FFF796FF1020FFF7E5
S31520000170BBFF0DE01020FFF78FFF0820FFF7B4FF2D
S3152000018006E00820FFF788FF1020FFF785FFC0460E
S31520000190C046BD4602B080BD80B582B000AF4020CB
S315200001A0FFF7A2FF144B154A1A600120FFF79CFFA8
S315200001B00220FFF771FFFFF730FF4020FFF76CFFAB
S315200001C0FFF72BFF0E4B1B78DAB2FB1D7F218A43EC
S315200001D01A704020FFF788FFFFF71FFFFB1D1B78D3
S315200001E0002B00D0E9E7C046034B064A1A60C046FA
S315200001F0BD4602B080BDC0460010024055550000E5
S31520000200111002405555555580B584B000AF0200F7
S31520000210FB1D1A704020FFF767FF1D4B1D4A1A6011
S315200002200120FFF739FF0220FFF736FFFB1D1B7861
S315200002301800FFF781FFFFF7F0FE4020FFF72CFFA5
S31520000240FFF7EBFE144A0F23FB1812781A70402092
S31520000250FFF74AFF0E4B114A1A60FB1D1B78082236
S31520000260134004D00820FFF767FFFFF795FFFB1D1B
S315200002701B781022134004D01020FFF75DFFFFF7F4
S315200002808BFF0F23FB181B781800BD4604B080BDDA
S315200002900010024055550000111002405555555585
S315200002A080B582B000AF0200FB1D1A70BB1D0A1C70
S315200002B01A701B4AFB1D1B781370BB1D1B78180078
S315200002C0FFF73AFFFFF7A9FE4020FFF7E5FEFFF70D
S315200002D0A4FE4020FFF708FFBB1D1B780822134011
S315200002E004D00820FFF728FFFFF756FFBB1D1B7819
S315200002F01022134004D01020FFF71EFFFFF74CFFFB
S31520000300074B1B78064B00221A704020FFF7C4FECD
S315200003100020FFF711FFC046BD4602B080BDC04693
S315200003201510024080B582B000AF0200FB1D1A7086
S31520000330BB1D0A1C1A704020FFF7D6FEBB1D1B787A
S315200003401800FFF7F9FE0120FFF7CEFE0220FFF787
S31520000350CBFEBB1D1A78FB1D1B7811001800FFF77A
S315200003609FFFC046BD4602B080BD80B582B000AFBB
S315200003700200FB1D1A70BB1D0A1C1A704020FFF7D5
S31520000380B3FEBB1D1B781800FFF7D6FE0120FFF732
S3152000039083FE0220FFF7A8FEBB1D1A78FB1D1B78E3
S315200003A011001800FFF77CFFC046BD4602B080BD95
S315200003B080B582B000AF0200FB1D1A70FB1D1B78B2
S315200003C01800FFF721FFFB1D1B781800FFF71CFF05
S315200003D003001800BD4602B080BD80B500AF034BB8
S315200003E0034A1A60C046BD4680BDC0460010024082
S315200003F05555555580B500AF4020FFF74DFE0A20D4
S31520000400FFF714FE0820FFF76FFE1020FFF76CFEA3
S315200004102020FFF769FE4020FFF766FE1E20FFF72B
S315200004201CFE2020FFF738FE6420FFF716FE182159
S315200004303E20FFF777FF18213F20FFF773FF182193
S31520000440C020FFF76FFF18214020FFF76BFF182110
S31520000450B820FFF767FF0020FFF76EFEC046BD46B7
S3152000046080BD80B582B000AFFB1D00221A7023E04C
S31520000470FB1D1B78482252421343DBB21821180079
S31520000480FFF750FF18214020FFF74CFFBB1D00222D
S315200004901A7008E018210020FFF767FFBB1D1A78A5
S315200004A0BB1D01321A70BB1D1B783F2BF2D9FB1DD9
S315200004B01A78FB1D01321A70FB1D1B78072BD7D922
S315200004C0C046C046BD4602B080BDF0B589B000AF7B
S315200004D0F860B9607A60BB68013BDB08BB61FB68EA
S315200004E0002B00D1A6E0BB68002B00D1A2E0FB6860
S315200004F0802B00D99EE0BB68402B00D99AE0BB68D0
S31520000500013B07221340072B2CD89A004B4BD318BC
S315200005101B689F461F23FB1801221A7022E01F2307
S31520000520FB1802221A701DE01F23FB1804221A70E2
S3152000053018E01F23FB1808221A7013E01F23FB184C
S3152000054010221A700EE01F23FB1820221A7009E0D1
S315200005501F23FB1840221A7004E01F23FB18802259
S315200005601A70C0467B68002B05D11F22BB18BA180B
S315200005701278D2431A70FB68402B07D91E23FB182A
S3152000058010221A70FB68413BFB6006E01E23FB1815
S3152000059008221A70FB68013BFB60FB68DBB2402235
S315200005A01343DAB21E257B191B7819001000FFF7BA
S315200005B0B9FEBB695BB24822524213435BB2DAB240
S315200005C07B191B7819001000FFF7ACFE1726BC1903
S315200005D07B191B781800FFF7EBFE03002370FB68DE
S315200005E0DBB240221343DAB27B191B7819001000C4
S315200005F0FFF798FE7B68002B08D01F22BB18B9187E
S31520000600BA19097812780A431A7008E01F22BB1813
S31520000610BA1817217918127809780A401A701E23F9
S31520000620FB181A781F23FB181B7811001800FFF7F8
S315200006309CFE00E0C046BD4609B0F0BDF407002090
S3152000064080B582B000AFFFF7C8FEFFF7D3FE0023C8
S315200006507B6008E07B6801220A211800FFF735FF3E
S315200006607B6801337B607B687F2BF3D900237B601B
S3152000067008E07B68012219000A20FFF726FF7B6825
S3152000068001337B607B683F2BF3D9FA235B0018008C
S31520000690FFF7E3FC00237B6008E07B6800220A2149
S315200006A01800FFF712FF7B6801337B607B687F2B86
S315200006B0F3D900237B6008E07B68002219000A201A
S315200006C0FFF703FF7B6801337B607B683F2BF3D901
S315200006D0C046C046BD4602B080BDC0460022430883
S315200006E08B4274D303098B425FD3030A8B4244D3D4
S315200006F0030B8B4228D3030C8B420DD3FF22090216
S3152000070012BA030C8B4202D31212090265D0030BD4
S315200007108B4219D300E0090AC30B8B4201D3CB03CA
S31520000720C01A5241830B8B4201D38B03C01A52410C
S31520000730430B8B4201D34B03C01A5241030B8B420E
S3152000074001D30B03C01A5241C30A8B4201D3CB02F9
S31520000750C01A5241830A8B4201D38B02C01A5241DE
S31520000760430A8B4201D34B02C01A5241030A8B42E1
S3152000077001D30B02C01A5241CDD2C3098B4201D3F9
S31520000780CB01C01A524183098B4201D38B01C01A77
S31520000790524143098B4201D34B01C01A52410309EE
S315200007A08B4201D30B01C01A5241C3088B4201D39D
S315200007B0CB00C01A524183088B4201D38B00C01A4A
S315200007C0524143088B4201D34B00C01A5241411A71
S315200007D000D20146524110467047FFE701B500207E
S315200007E000F006F802BDC0460029F7D076E770472C
S315200007F07047C046140500201E050020280500204D
S31520000800320500203C05002046050020500500202A
S309200008105A0500203F
S70520000000DA
