S02400002E2F44656275672F666C6970666C6F705F6972715F766563746F7265642E7331399B
S315200000000248854600F0CAF8FEE7C04600C0012037
S3152000001080B500AF324B00221A60324B1A68314B42
S3152000002031490A401A602F4B1A682E4B2F490A4332
S315200000301A602F4B00221A702E4B1A682D4B8021E6
S3152000004049000A431A602B4B1A682A4B80210A431F
S315200000501A60284B1A68274B40210A431A60264B00
S31520000060264A1A60264B274A1A60274B274A1A60C7
S31520000070274B1A68264B120B12031A60244B1A6858
S31520000080234B24490A431A60234B1A68224B042126
S315200000900A431A60204B1A681F4B02210A431A6032
S315200000A01D4B1A681C4B01210A431A601B4B1A6808
S315200000B01A4B04210A431A60184B1A68174B04215D
S315200000C00A431A60154B1A68144B04210A431A6016
S315200000D0134B1B68124B00221A60C046BD4680BDDA
S315200000E000100240000C02406D0B0000E3B54F03E8
S315200000F0150C0240100E000E58C0012025010020CC
S315200001005CC001204D01002060C00120710100204B
S315200001100838014044040000003C01400C3C0140EA
S31520000120083C014080B500AF064B1A68054B0121FB
S315200001300A431A60044B1B685A1C034B1A60C046BC
S31520000140BD4680BD143C0140B801002080B500AFFB
S31520000150054B1A68044B02210A431A60034B0022FE
S315200001601A60C046BD4680BD143C0140B80100203F
S3152000017080B500AF074B1A68064B04210A431A6064
S31520000180054B1B78DBB2044ADB43DBB21370C04657
S31520000190BD4680BD143C0140150C024080B500AF21
S315200001A0FFF736FF024B1A68024BD2B21A70F9E7F4
S311200001B0B8010020140C024000000000E2
S70520000000DA
