S01A00002E2F44656275672F7379737469636B5F6972712E733139B2
S315200000000248854600F06AF8FEE7C04600C0012097
S3152000001080B500AF074B00221A60074BA7221A6053
S31520000020064B00221A60034B07221A60C046BD46C3
S3152000003080BDC04610E000E014E000E018E000E0DB
S3152000004080B582B000AF78607B68002B08D07A68D4
S31520000050054B1A60054B00221A60FFF7D9FF00E016
S31520000060C046BD4602B080BD200100201C010020F4
S3152000007080B500AF0A4B00221A600A4B1B685A1E35
S31520000080084B1A60074B1B68002B02DDFFF7C0FFE9
S3152000009002E0054B01221A60C046BD4680BDC0461F
S315200000A010E000E0200100201C01002080B500AFF8
S315200000B0054B064A1A60064B064A1A60064B002272
S315200000C01A60C046BD4680BD000C02405555000052
S315200000D03CC00120710000201C01002080B500AF2B
S315200000E0FFF7E4FF0A4B00221A700A4B1800FFF7AD
S315200000F0A7FF074BFF221A70074B1B68002B00D166
S31520000100FAE7C046024B00221A70C046BD4680BDA3
S31520000110140C024040420F001C0100200000000089
S3092000012000000000B5
S70520000000DA
