S01F00002E2F44656275672F666C6970666C6F705F6972715F61636B2E733139CD
S315200000000248854600F052F8FEE7C04600C00120AF
S3152000001080B500AF064B1B680822134005D0044B61
S315200000201A68034B08210A431A60C046BD4680BDA4
S31520000030143C014080B500AF144B154A1A60154B8D
S315200000401A68144B1205120D1A60124B1A68114BBE
S315200000508021C9010A431A600F4B1A680E4B0821EA
S315200000600A431A600D4B1A680C4B08210A431A6082
S315200000700B4B0C4A1A600C4B1A680B4B80218900DB
S315200000800A431A60C046BD4680BDC046000C0240E9
S315200000905555000008380140003C0140083C01400D
S315200000A064C001201100002000E100E080B500AF0F
S311200000B0C046BD4680BDC04600000000D2
S70520000000DA
