S01800002E2F44656275672F506F6E675F67616D652E733139DC
S315200000000248854600F0CBFDFEE7C04600C0012031
S3152000001080B500AF0B4B00221A600B4B29221A60C9
S315200000200A4B00221A60074B05221A60C046054B70
S315200000301B68074A1340FAD0024B00221A60C046BA
S31520000040BD4680BD10E000E014E000E018E000E0CE
S315200000501027000080B500AFFFF7DAFFFFF7D8FFC3
S31520000060C046BD4680BD80B582B000AF786007E04F
S31520000070FFF7CEFFFFF7CCFFFFF7CAFFFFF7C8FF5A
S315200000807B685A1E7A60002BF2D1C046C046BD4618
S3152000009002B080BD80B582B000AF786004E0FA235C
S315200000A09B001800FFF7DFFF7B685A1E7A60002B43
S315200000B0F5D1C046C046BD4602B080BD80B582B0EF
S315200000C000AF0200FB1D1A70074B1B78DAB2FB1D2E
S315200000D01B781343DBB2044A04210B43DBB21370B3
S315200000E0C046BD4602B080BD1410024080B582B025
S315200000F000AF0200FB1D1A70084B1B78DAB2FB1DFD
S315200001001B78DB43DBB21343DBB2044A04210B43E7
S31520000110DBB21370C046BD4602B080BD141002404B
S3152000012080B582B000AF0200FB1D1A70FFF770FF8A
S315200001304020FFF7C3FF074AFB1D1B781370FFF70C
S3152000014067FF4020FFF7D2FFFFF762FFC046BD469C
S3152000015002B080BD1510024080B582B000AF4020AD
S31520000160FFF7ACFFFFF754FFFFF752FF064AFB1DD0
S3152000017012781A704020FFF7B9FFFB1D1B78180074
S31520000180BD4602B080BDC0461110024090B583B076
S3152000019000AF0B4B0B4A1A600120FFF7A7FF022086
S315200001A0FFF78CFFFC1DFFF7D7FF03002370044BDE
S315200001B0054A1A60FB1D1B781800BD4603B090BD8A
S315200001C000100240555500005555555580B582B052
S315200001D000AF0200FB1D1A700120FFF787FF0220E7
S315200001E0FFF784FFFB1D1B781800FFF799FFC04619
S315200001F0BD4602B080BD80B582B000AF0200FB1DB7
S315200002001A700120FFF75AFF0220FFF76FFFFB1D30
S315200002101B781800FFF784FFC046BD4602B080BD9C
S3152000022080B500AFC046FFF7B1FF03001A00802358
S315200002301340802BF7D00820FFF715FF3820FFF753
S31520000240C5FF2820FFF70FFFC046FFF79FFF0300DB
S315200002501A0080231340802BF7D00820FFF703FFD6
S315200002600C20FFF7B3FF2820FFF7FDFEC046FFF75F
S315200002708DFF03001A0080231340802BF7D008201F
S31520000280FFF7F1FE0120FFF7A1FF0220FFF702FF93
S31520000290C046FFF77BFF03001A0080231340802B04
S315200002A0F7D00820FFF7DFFE0620FFF78FFF282074
S315200002B0FFF7D9FEC046BD4680BD80B584B000AFED
S315200002C0786039607B68DAB20F217B18013A1A70A0
S315200002D03B68022B05D17B187A18127840210A43F5
S315200002E01A700F23FB181B78802252421343DBB26D
S315200002F01800FFF76BFFC046BD4604B080BD80B531
S3152000030082B000AF0200FB1D1A70C046FFF73EFF09
S3152000031003001A0080231340802BF7D00820FFF714
S31520000320A2FEFB1D1B781800FFF765FF2820FFF7AC
S315200003309AFEC046BD4602B080BD80B584B000AFEF
S315200003400200FB1D1A70104A0F203B1812781A70F3
S315200003503B183A18127804218A431A70FB1D1B7821
S315200003605BB2042293435AB23B181B785BB2134309
S315200003705AB23B181A70044A3B181B781370C046B1
S31520000380BD4604B080BDC0461410024080B584B07E
S3152000039000AF0200FB1D1A700F4A0F203B1812787F
S315200003A01A703B183A18127804218A431A70FB1DDA
S315200003B01B785BB2DB435BB23A18127852B2134019
S315200003C05AB23B181A70044A3B181B781370C04661
S315200003D0BD4604B080BDC0461410024080B582B030
S315200003E000AF0200FB1D1A70FB1D1B78182B1AD0BC
S315200003F020DC102B10D01DDC002B02D0082B04D0C3
S3152000040018E01820FFF7C2FF14E00820FFF795FF39
S315200004101020FFF7BBFF0DE01020FFF78EFF08200E
S31520000420FFF7B4FF06E00820FFF787FF1020FFF74D
S3152000043084FFC046C046BD4602B080BD80B582B0AE
S3152000044000AF4020FFF7A2FF144B154A1A60012087
S31520000450FFF79CFF0220FFF770FFFFF7FBFD402010
S31520000460FFF76BFFFFF7F6FD0E4B1B78DAB2FB1D8D
S315200004707F218A431A704020FFF788FFFFF7EAFDA5
S31520000480FB1D1B78002B00D0E9E7C046034B064A2C
S315200004901A60C046BD4602B080BDC046001002406C
S315200004A055550000111002405555555580B584B05C
S315200004B000AF0200FB1D1A704020FFF767FF1D4B9F
S315200004C01D4A1A600120FFF738FF0220FFF735FF8B
S315200004D0FB1D1B781800FFF781FFFFF7BBFD4020AF
S315200004E0FFF72BFFFFF7B6FD144A0F23FB181278F0
S315200004F01A704020FFF74AFF0E4B114A1A60FB1D67
S315200005001B780822134004D00820FFF767FFFFF767
S3152000051095FFFB1D1B781022134004D01020FFF7F7
S315200005205DFFFFF78BFF0F23FB181B781800BD46D6
S3152000053004B080BD00100240555500001110024045
S315200005405555555580B582B000AF0200FB1D1A7077
S31520000550BB1D0A1C1A701B4AFB1D1B781370BB1D82
S315200005601B781800FFF73AFFFFF774FD4020FFF7CE
S31520000570E4FEFFF76FFD4020FFF708FFBB1D1B7849
S315200005800822134004D00820FFF728FFFFF756FF64
S31520000590BB1D1B781022134004D01020FFF71EFF2E
S315200005A0FFF74CFF074B1B78064B00221A704020A2
S315200005B0FFF7C3FE0020FFF711FFC046BD4602B07D
S315200005C080BDC0461510024080B582B000AF020043
S315200005D0FB1D1A70BB1D0A1C1A704020FFF7D6FEA1
S315200005E0BB1D1B781800FFF7F9FE0120FFF7CEFE92
S315200005F00220FFF7CBFEBB1D1A78FB1D1B781100CE
S315200006001800FFF79FFFC046BD4602B080BD80B5EB
S3152000061082B000AF0200FB1D1A70BB1D0A1C1A70A7
S315200006204020FFF7B3FEBB1D1B781800FFF7D6FE50
S315200006300120FFF782FE0220FFF7A8FEBB1D1A78D5
S31520000640FB1D1B7811001800FFF77CFFC046BD4636
S3152000065002B080BD80B582B000AF0200FB1D1A70CB
S31520000660FB1D1B781800FFF721FFFB1D1B781800C8
S31520000670FFF71CFF03001800BD4602B080BD80B501
S3152000068000AF034B034A1A60C046BD4680BDC04634
S31520000690001002405555555580B500AF4020FFF754
S315200006A04CFE0A20FFF7DFFC0820FFF76FFE102024
S315200006B0FFF76CFE2020FFF769FE4020FFF766FE5D
S315200006C01E20FFF7E7FC2020FFF737FE6420FFF708
S315200006D0E1FC18213E20FFF777FF18213F20FFF786
S315200006E073FF1821C020FFF76FFF18214020FFF766
S315200006F06BFF1821B820FFF767FF0020FFF76EFE7B
S31520000700C046BD4680BD80B582B000AFFB1D00222D
S315200007101A7023E0FB1D1B78482252421343DBB29A
S3152000072018211800FFF750FF18214020FFF74CFF33
S31520000730BB1D00221A7008E018210020FFF767FF72
S31520000740BB1D1A78BB1D01321A70BB1D1B783F2BAF
S31520000750F2D9FB1D1A78FB1D01321A70FB1D1B787E
S31520000760072BD7D9C046C046BD4602B080BD80B54E
S3152000077084B000AF0023BB600D23FB1800221A7043
S315200007804FE00D23FB181B78002B01D1082200E037
S315200007901022FB1D1A700E23FB1800221A7035E05A
S315200007A00E23FB181B78482252421343DAB2FB1D54
S315200007B01B7819001000FFF707FFFB1D1B78190097
S315200007C04020FFF701FF0F23FB1800221A7012E0CA
S315200007D0194ABB68D3181A78FB1D1B78190010001C
S315200007E0FFF715FF0F217B181A787B1801321A7034
S315200007F0BB680133BB600F23FB181B783F2BE7D95F
S315200008000E217B181A787B1801321A700E23FB18DA
S315200008101B78072BC4D90D217B181A787B18013237
S315200008201A700D23FB181B78012BAAD9C046C04687
S31520000830BD4604B080BDC046BC0C002080B584B047
S3152000084000AF786039600023FB607B68802B3DDC3D
S315200008507B68002B3ADD3B68402B37DC3B68002B5E
S3152000086034DD3B68013B1B4A134004D5013B08227B
S315200008705242134301331A00012393401A000B23DB
S31520000880FB181A707B68402B05DD7B68413B7B603B
S3152000089080239B00FB603B68013B002B00DA07337B
S315200008A0DB109A017B68D318FA68D318FB600A4AD2
S315200008B0FB68D3181A780B23FB181B781343D9B27D
S315200008C0054AFB68D3180A1C1A7000E0C046BD46CC
S315200008D004B080BD07000080BC0C002080B582B02B
S315200008E000AF00237B6007E0084A7B68D31800220C
S315200008F01A707B6801337B607A688023DB009A421A
S31520000900F2DBC046C046BD4602B080BDBC0C00200E
S3152000091090B587B000AF3B001B4A13CA13C31268B9
S315200009201A6001237B617B69042B24DC7B69180018
S3152000093000F02EF800F056F803003B613B69002BCF
S315200009400CD07B69180000F023F87B69013B9A00E4
S315200009503B69013BD3183A00D35C10E07B69180051
S3152000096000F016F87B69013B9A003B69013BD318DE
S315200009703A00D35C03E0054B00221A70FF231800CF
S31520000980BD4607B090BDC04618120020150C024087
S3152000099080B582B000AF78607B68042B19D87B685D
S315200009A09A000E4BD3181B689F460D4B10221A70C7
S315200009B00FE00B4B20221A700BE0094B40221A70D5
S315200009C007E0074B80221A7003E0054B00221A70BD
S315200009D0C046C046BD4602B080BDC0462812002093
S315200009E0150C024080B582B000AF124AFB1D12786A
S315200009F01A70FB1D1B780822134001D0042315E032
S31520000A00FB1D1B780422134001D003230EE0FB1D9F
S31520000A101B780222134001D0022307E0FB1D1B781E
S31520000A200122134001D0012300E000231800BD4617
S31520000A3002B080BD110C024080B584B000AFF860D2
S31520000A40B9607A60FB68BA685A60FB687A689A600F
S31520000A50C046BD4604B080BD80B584B000AF786086
S31520000A600023FB601BE07B68DA687B681968FB68FB
S31520000A7004335B00CB1804331B78D0187B681A69C3
S31520000A807B681968FB6804335B00CB1805331B7839
S31520000A90D3181900FFF7D2FEFB680133FB607B6891
S31520000AA01B681B68FA689A42DDDBC046C046BD4615
S31520000AB004B080BD80B584B000AF78600023FB60B1
S31520000AC01BE07B68DA687B681968FB6804335B0087
S31520000AD0CB1804331B78D0187B681A697B68196891
S31520000AE0FB6804335B00CB1805331B78D318190039
S31520000AF0FFF7A4FEFB680133FB607B681B681B685D
S31520000B00FA689A42DDDBC046C046BD4604B080BDC9
S31520000B1080B582B000AF78607B68DA687B685B68F6
S31520000B20D2187B68DA607B681A697B689B68D21862
S31520000B307B681A617B68DB68002B04DC7B685B685A
S31520000B405A427B685A607B68DB68802B04DD7B68B1
S31520000B505B685A427B685A607B681B69022B04DCFF
S31520000B607B689B685A427B689A607B681B69402B2E
S31520000B7004DD7B689B685A427B689A60C046BD4606
S31520000B8002B080BD80B582B000AF78607B681B69FB
S31520000B905A1C7B681A61C046BD4602B080BDB0B5FE
S31520000BA08CB000AF10243B193F4A23CA23C31288B6
S31520000BB01A803B003D4A23CA23C312681A603C4B65
S31520000BC0BB623C4B7B623C4B3B62FFF758FDFFF719
S31520000BD063FDFFF798FDFFF723FB01210120FFF7B7
S31520000BE06CFB3B19FB6206E0FB6A5A1CFA621B7817
S31520000BF01800FFF784FBFB6A1B78002BF4D1022137
S31520000C000120FFF75AFB3B00FB6206E0FB6A5A1CF9
S31520000C10FA621B781800FFF772FBFB6A1B78002B21
S31520000C20F4D1BB6A1B6AB86A0122042198477B6A01
S31520000C301B6A786A0022002198473B6A1B6A386A39
S31520000C40002200219847BB6A9B69BA6A1000984720
S31520000C50BB6ADB69BA6A10009847BB6A5B69BA6AE5
S31520000C60100098477B6A9B697A6A100098477B6ACE
S31520000C70DB697A6A100098477B6A5B697A6A10009A
S31520000C8098473B6A9B693A6A100098473B6ADB693A
S31520000C903A6A100098473B6A5B693A6A100098479F
S31520000CA02820FFF7F7F9CEE73C1200204C1200204F
S31520000CB0AC110020D0110020F4110020000000000B
S31520000CC000000000000000000000000000000000FE
S31520000CD000000000000000000000000000000000EE
S31520000CE000000000000000000000000000000000DE
S31520000CF000000000000000000000000000000000CE
S315200010B00000000000000000000000000C000000FE
S315200010C004000000040000000100020000010101EC
S315200010D002010301000201020202030201030203CC
S315200010E000000000000000000000000000000000DA
S315200010F000000000000000000000000000000000CA
S3152000110000000000000000000000000000000000B9
S3152000111000000000000000000000000000000000A9
S315200011200000000000000000000000000000000099
S315200011300000000034000000020000001A00000039
S315200011400000010000010101000201020003010369
S315200011500004010400050105000601060007010739
S315200011600008010800090109000A010A000B010B09
S31520001170000C010C000D010D000E010E000F010FD9
S3152000118000100110001101110012011200130113A9
S315200011900014011400150115001601160017011779
S315200011A0001801180019011900000000BC100020C9
S315200011B00000000000000000010000000100000007
S315200011C0590A0020B50A0020110B0020390A0020F8
S315200011D03411002000000000000000000A0000007A
S315200011E000000000590A0020B50A0020850B0020C7
S315200011F0390A002034110020000000000000000001
S315200012007300000000000000590A0020B50A0020E3
S31520001210850B0020390A00200102030A0405060B6B
S315200012200708090C0E000F0DCA090020AA09002084
S31520001230B2090020BA090020C20900205468697347
S31520001240206973204D4434303700000048656C6CAB
S311200012506F20776F726C64212121210031
S70520000000DA
