S01700002E2F44656275672F6175746F706F6E672E733139FD
S315200000000248854600F09AFBFEE7C04600C0012064
S3152000001080B500AFC046BD4680BD80B500AFFFF7B6
S31520000020F7FFFFF7F5FFC046BD4680BD80B582B01D
S3152000003000AF786003E0FFF7F0FFFFF7EEFF7B6885
S315200000405A1E7A60002BF6D1C046C046BD4602B085
S3152000005080BD80B582B000AF78607B68FA229100BF
S31520000060180000F085FB03007B607B6801337B6012
S3152000007004E0FA239B001800FFF7D8FF7B685A1E7E
S315200000807A60002BF5D1C046C046BD4602B080BD81
S3152000009080B584B000AF0200FB1D1A700F4A0F20F6
S315200000A03B1812781A703B183A18127804218A43A2
S315200000B01A70FB1D1B785BB2042293435AB23B187D
S315200000C01B785BB213435AB23B181A70034A3B188B
S315200000D01B781370C046BD4604B080BD1410024084
S315200000E080B584B000AF0200FB1D1A700F4A0F20A6
S315200000F03B1812781A703B183A18127804218A4352
S315200001001A70FB1D1B785BB2DB435BB23A18127880
S3152000011052B213405AB23B181A70044A3B181B7845
S315200001201370C046BD4604B080BDC04614100240C0
S3152000013080B582B000AF0200FB1D1A70FB1D1B7834
S31520000140182B1AD020DC102B10D01DDC002B02D04F
S31520000150082B04D018E01820FFF7C2FF14E008206F
S31520000160FFF796FF1020FFF7BBFF0DE00820FFF7F3
S31520000170B7FF1020FFF78CFF06E00820FFF788FF67
S315200001801020FFF785FFC046C046BD4602B080BDA1
S3152000019080B582B000AF4020FFF7A2FF124B134A72
S315200001A01A600120FFF79CFF0220FFF771FFFFF77F
S315200001B034FF4020FFF76CFFFFF72FFF4020FFF7AB
S315200001C08FFFFFF72AFFFB1D1B78002B00D0F0E7DF
S315200001D0C0464020FFF75CFF034B054A1A60C04625
S315200001E0BD4602B080BDC0460010024055550000F5
S315200001F05555555580B584B000AF0200FB1D1A70C9
S315200002004020FFF76DFF0120FFF742FF0220FFF796
S315200002103FFF1A4B1A4A1A60FB1D1B781800FFF77E
S3152000022087FFFFF7FAFE4020FFF732FFFFF7F5FEC4
S31520000230144A0F23FB1812781A704020FFF750FF3C
S315200002400E4B114A1A60FB1D1B780822134004D05E
S315200002500820FFF76DFFFFF79BFFFB1D1B78102281
S31520000260134004D01020FFF763FFFFF791FF0F2301
S31520000270FB181B781800BD4604B080BD0010024054
S3152000028055550000111002405555555580B582B080
S3152000029000AF0200FB1D1A70BB1D0A1C1A70134A00
S315200002A0FB1D1B781370FFF7B8FE4020FFF7F0FE0A
S315200002B0FFF7B3FE4020FFF713FF0820FFF738FFB4
S315200002C0FFF766FF1020FFF733FFFFF761FF074BAD
S315200002D01B78064B00221A704020FFF7D9FE00201B
S315200002E0FFF726FFC046BD4602B080BD1110024072
S315200002F080B582B000AF0200FB1D1A70BB1D0A1C20
S315200003001A704020FFF7ECFEBB1D1B781800FFF784
S315200003100FFF0120FFF7E4FE0220FFF7E1FEBB1DE1
S315200003201A78FB1D1B7811001800FFF7AFFFC04697
S31520000330BD4602B080BD80B582B000AF0200FB1D75
S315200003401A70BB1D0A1C1A704020FFF7C9FEBB1D80
S315200003501B781800FFF7ECFE0120FFF799FE02201C
S31520000360FFF7BEFEBB1D1A78FB1D1B781100180077
S31520000370FFF78CFFC046BD4602B080BD80B582B077
S3152000038000AF0200FB1D1A70FB1D1B781800FFF73B
S3152000039031FFFB1D1B781800FFF72CFF0300180008
S315200003A0BD4602B080BD80B500AF034B034A1A603C
S315200003B0C046BD4680BDC046001002405555555525
S315200003C080B500AF4020FFF763FE0A20FFF72EFE20
S315200003D00820FFF785FE1020FFF782FE2020FFF77A
S315200003E07FFE4020FFF77CFE1E20FFF732FE2020F6
S315200003F0FFF74EFE18213E20FFF77AFF18213F20F7
S31520000400FFF776FF1821C020FFF772FF1821402042
S31520000410FFF76EFF1821B820FFF76AFF0020FFF7CD
S3152000042087FEC046BD4680BD80B582B000AF0023A2
S315200004307B601EE07B685BB24822524213435BB26C
S31520000440DBB218211800FFF753FF18214020FFF7D1
S315200004504FFF00233B6006E018210020FFF76BFFCB
S315200004603B6801333B603B683F2BF5DD7B680133FE
S315200004707B607B68072BDDDDC046C046BD4602B0EB
S3152000048080BDF0B589B000AFF860B9607A60BB680E
S31520000490013BDB08BB61BB68013B07221340072BEE
S315200004A02CD89A004B4BD3181B689F461F23FB184A
S315200004B001221A7022E01F23FB1802221A701DE067
S315200004C01F23FB1804221A7018E01F23FB1808228A
S315200004D01A7013E01F23FB1810221A700EE01F2338
S315200004E0FB1820221A7009E01F23FB1840221A70DD
S315200004F004E01F23FB1880221A70C0467B68002B5D
S3152000050005D11F22BB18BA181278D2431A70FB687D
S31520000510402B07D91E23FB1810221A70FB68413B7B
S31520000520FB6006E01E23FB1808221A70FB68013BBD
S31520000530FB60FB68DBB240221343DAB21E257B192F
S315200005401B7819001000FFF7D3FEBB695BB2482267
S31520000550524213435BB2DAB27B191B7819001000A2
S31520000560FFF7C6FE1726BC197B191B781800FFF764
S3152000057005FF03002370FB68DBB240221343DAB287
S315200005807B191B7819001000FFF7B2FE7B68002B41
S3152000059008D11F22BB18B918BA19097812780A434C
S315200005A01A7008E01F22BB18BA181721791812787A
S315200005B009780A401A701E23FB181A781F23FB1885
S315200005C01B7811001800FFF7B6FEC046BD4609B0DD
S315200005D0F0BDC046E008002080B584B000AFF860CA
S315200005E0B9607A60FB68BA685A60FB687A689A6074
S315200005F0C046BD4604B080BD80B584B000AF7860EB
S315200006000023FB601DE07B68DA687B681968FB685D
S3152000061004335B00CB1804331B78D31818007B688F
S315200006201A697B681968FB6804335B00CB180533AD
S315200006301B78D31801221900FFF723FFFB6801332B
S31520000640FB607B681B681B68FA689A42DBDBC04646
S31520000650C046BD4604B080BD80B584B000AF78608A
S315200006600023FB601DE07B68DA687B681968FB68FD
S3152000067004335B00CB1804331B78D31818007B682F
S315200006801A697B681968FB6804335B00CB1805334D
S315200006901B78D31800221900FFF7F3FEFB680133FD
S315200006A0FB607B681B681B68FA689A42DBDBC046E6
S315200006B0C046BD4604B080BD80B582B000AF78602C
S315200006C07B681800FFF7C8FF7B68DA687B685B6881
S315200006D0D2187B68DA607B681A697B689B68D218B7
S315200006E07B681A617B68DB68002B04DC7B685B68AF
S315200006F05A427B685A607B68DB68802B04DD7B6806
S315200007005B685A427B685A607B681B69002B04DC55
S315200007107B689B685A427B689A607B681B69402B82
S3152000072004DD7B681B695A427B681A617B68180066
S31520000730FFF762FFC046BD4602B080BD80B582B0DD
S3152000074000AF0A4B7B60FFF72EFEFFF739FE7B6872
S315200007501B6A78680122042198477B68DB697A68DE
S31520000760100098472820FFF774FCF6E7BC08002005
S31520000770002243088B4274D303098B425FD3030ABA
S315200007808B4244D3030B8B4228D3030C8B420DD3CD
S31520000790FF22090212BA030C8B4202D3121209025B
S315200007A065D0030B8B4219D300E0090AC30B8B4299
S315200007B001D3CB03C01A5241830B8B4201D38B0347
S315200007C0C01A5241430B8B4201D34B03C01A5241EC
S315200007D0030B8B4201D30B03C01A5241C30A8B422F
S315200007E001D3CB02C01A5241830A8B4201D38B021A
S315200007F0C01A5241430A8B4201D34B02C01A5241BE
S31520000800030A8B4201D30B02C01A5241CDD2C3092F
S315200008108B4201D3CB01C01A524183098B4201D3AB
S315200008208B01C01A524143098B4201D34B01C01A96
S31520000830524103098B4201D30B01C01A5241C3080E
S315200008408B4201D3CB00C01A524183088B4201D37D
S315200008508B00C01A524143088B4201D34B00C01A69
S315200008605241411A00D20146524110467047FFE7D5
S3152000087001B5002000F006F802BDC0460029F7D0D9
S3152000088076E770477047C0460C0000000400000061
S315200008900400000001000200000101010201030121
S315200008A0000201020202030201030203000000000B
S315200008B00000000000000000000000008808002062
S315200008C00000000000000000010000000100000000
S315200008D0F905002059060020B9060020D905002078
S315200008E0AC040020B6040020C0040020CA04002066
S315200008F0D4040020DE040020E8040020F2040020B6
S70520000000DA
